:100000000C9438000C9442000C9442000C94420072
:100010000C9442000C9442000C9442000C94420058
:100020000C9442000C9442000C9442000C94420048
:100030000C9442000C9442000C9442000C94420038
:100040000C9442000C9442000C9442000C94420028
:100050000C9442000C9442000C9442000C94420018
:100060000C9442000C9442000C9442000C94420008
:1000700011241FBECFEFD4E0DEBFCDBF0E946900C8
:100080000C947A000C94000090BD89B988E18AB97B
:100090008EE880BD08955D9BFECF8CB908955F9B6F
:1000A000FECF8CB108950F931F93CF93FC018081F5
:1000B000882359F08F01C0E00E944B00CF5FF80108
:1000C000EC0FF11D80818111F7CFCF911F910F911E
:1000D00008958FE190E00E94440083E60E944B0067
:1000E0002FEF8FE791E0215080409040E1F700C072
:0800F00000C0F3CFF894FFCF2C
:00000001FF
