:100000000C9438000C9442000C9442000C94420072
:100010000C9442000C9442000C9442000C94420058
:100020000C9442000C9442000C9442000C94420048
:100030000C9442000C9442000C9442000C94420038
:100040000C9442000C9442000C9442000C94420028
:100050000C9442000C9442000C9442000C94420018
:100060000C9442000C9442000C9442000C94420008
:1000700011241FBECFEFD4E0DEBFCDBF0E944B00E6
:100080000C946C000C9400008FEF8ABB319A089599
:100090008FEF8BBB08950E9444008FEF8BBB90EFD6
:1000A0008FE0399A9BBB27B117B82FEF3FEF4EE097
:1000B000215030404040E1F700C00000399A8BBB2E
:1000C00027B117B82FEF3FEF4EE0215030404040AE
:0C00D000E1F700C00000E5CFF894FFCF7E
:00000001FF
