:100000000C9438000C9455000C9455000C94550039
:100010000C9455000C9455000C9455000C9455000C
:100020000C9455000C9455000C9455000C945500FC
:100030000C9455000C9455000C9455000C945500EC
:100040000C9455000C9455000C9455000C945500DC
:100050000C9455000C9455000C9455000C945500CC
:100060000C9455000C9455000C9455000C945500BC
:1000700011241FBECFEFD4E0DEBFCDBF12E0A0E061
:10008000B1E0E2E9FEE002C005900D92A63AB107A8
:10009000D9F722E0A6EAB2E001C01D92A03BB20768
:1000A000E1F70E9461000C9447070C94000085B7AB
:1000B000806885BF80B7806280BF80B7877E80BF41
:1000C00008950E9457008FE190E00E94B7010E94BE
:1000D000DA01CAE0D1E00E94F3011F929F931F92C0
:1000E0008F931F927F931F926F93DF93CF930E9402
:1000F000A6028FEF9FE50197F1F700C000008DB7D2
:100100009EB70A960FB6F8949EBF0FBE8DBFE3CF81
:10011000CF92DF92EF92FF920F931F93CF93DF93D3
:100120008AE391E00E94BC020E944B026C010E9493
:100130005002D0E0C0E010E000E00F2EF0E5EF2E1E
:10014000F1E0FF2EF02D05C02196C1159CE0D907E6
:10015000F1F00E944B02FE01FC5E80832081281793
:1001600099F399279F938F931F922F93DF93CF93A8
:10017000FF92EF920E94A6020F5F1F4F8DB79EB7AE
:1001800008960FB6F8949EBF0FBE8DBFDDCFC60197
:100190000E945002D0E0C0E0F12CE12C0F2EF9E8D3
:1001A000CF2EF1E0DF2EF02D05C02196C1159CE089
:1001B000D907F1F00E944B02FE01FC5E2081281756
:1001C000A1F399279F938F931F922F93DF93CF9340
:1001D000DF92CF920E94A6028FEFE81AF80A8DB73D
:1001E0009EB708960FB6F8949EBF0FBE8DBFDDCFA9
:1001F000FF92EF921F930F9386EC91E09F938F9362
:100200000E94A6020F900F900F900F900F900F90EA
:10021000DF91CF911F910F91FF90EF90DF90CF90E2
:100220000895CF93DF93C0E0D8E181E08883E1E0D7
:10023000F8E182E08083908188811F929F931F92D2
:100240008F938FE192E09F938F930E94A60281E1AA
:100250008883E2E0F8E182E28083908188811F92C6
:100260009F931F928F9382E392E09F938F930E94BC
:10027000A602E4E0F8E183E38083A8E0B8E184E447
:100280008C939C9180811F929F931F928F9385E402
:1002900092E09F938F930E94A602E0E1F8E185E54A
:1002A0008083A0E2B8E186E68C939C9180811F92C6
:1002B0009F931F928F9388E592E09F938F930E9464
:1002C000A602E0E4F8E187E78083A0E8B8E188E8E7
:1002D0008C939C9180811F929F931F928F938BE6AA
:1002E00092E09F938F930E94A602E0E0F9E181EAF9
:1002F0008083A0E0BAE182EA8C939C9180811F9276
:100300009F931F928F938EE792E09F938F930E940B
:10031000A602E0E0FCE183EA8083A0E0B0E284EAA8
:100320008C939C9180812DB73EB72C5D3F4F0FB6CB
:10033000F8943EBF0FBE2DBF1F929F931F928F93C5
:1003400081E992E09F938F930E94A6020F900F90F5
:100350000F900F900F900F90DF91CF9108955D9BBC
:10036000FECF8CB908955F9BFECF8CB1089590BDF0
:1003700089B988E18AB98EE880BD63EB71E08FEAC4
:1003800091E00E945B0208950F931F93CF93FC01AD
:100390008081882359F08F01C0E00E94AF01CF5FB8
:1003A000F801EC0FF11D80818111F7CFCF911F91E2
:1003B0000F9108958D9A8EB588608EBD8EB58F7E13
:1003C0008EBD8FB58C7F8FBD8FB580648FBD8FB58F
:1003D0008F778FBD8EB581608EBD8EB5897F8EBDC6
:1003E0001ABC1BBC0895E0E0F0E181E0808386E266
:1003F0008A95F1F7708160819081808108958F9254
:100400009F92AF92BF92CF92DF92EF92FF92CF93E3
:10041000DF93EC01688179818A819B816115710587
:100420008105910521F464E279ED8BE597E02DE1FA
:1004300033EF41E050E00E94AD0649015A019B01B3
:10044000AC01A7EAB1E40E94CC066B017C01ACEEE2
:10045000B4EFA50194010E94DA06DC01CB018C0DFA
:100460009D1DAE1DBF1DB7FF03C00197A109B04878
:1004700088839983AA83BB839F77DF91CF91FF9075
:10048000EF90DF90CF90BF90AF909F908F900895A6
:100490000E94FF01089580E091E00E94FF0108950D
:1004A000B0E0A0E08093000190930101A0930201CD
:1004B000B093030108950F931F93CF93DF93009799
:1004C00059F46115710541F4F0E0E0E0CF01DF91EE
:1004D000CF911F910F9108958B01EC016EE070E0B8
:1004E00081E090E00E94C104FC01892B69F380E85F
:1004F00083830115110571F01387028781E88383D7
:100500008091A6029091A702892B21F4F093A70273
:10051000E093A6022097D1F2D187C08783818260C1
:1005200083838091A8029091A902892B79F6F09398
:10053000A902E093A8028091AA029091AB02892BB4
:1005400029F6F093AB02E093AA02C0CFB0E0A0E09E
:10055000ECEAF2E00C94EF06AE014B5F5F4FFA015C
:1005600061917191AF018091A8029091A9020E94BE
:10057000E702E2E00C940B070F931F93CF93DF93F6
:10058000E091A802F091A9022381EC0110E000E0C3
:1005900021FD08C00FEF1FEF14C00995892B11F042
:1005A0000FEF1FEF89916091A8027091A902DB0102
:1005B0001896ED91FC918111F0CF8AE00995892B75
:1005C00049F7C801DF91CF911F910F910895ABE0DA
:1005D000B0E0EDEEF2E00C94DF067C013B018A0115
:1005E000FC0117821682838181FFC8C1CE0101966A
:1005F0005C01F7019381F30193FD859193FF819154
:100600003F01882309F453C1853239F493FD859164
:1006100093FF81913F01853229F4B70190E00E9458
:100620001F06E7CF912C212C312CFFE1F31538F078
:100630008B3211F190F4803209F1833229F137FCC9
:100640003CC020ED280F2A3050F536FE20C08AE04D
:10065000989E200D1124922E06C08D3291F0803389
:1006600071F7689430F8F30193FD859193FF8191C0
:100670003F018111DACF21C0689431F8689432F8D3
:10068000F2CF689433F8EFCF689434F8ECCFEAE017
:100690002E9E200D1124222E689435F8E4CF8E3240
:1006A00029F436FC04C1689436F8DDCF8C3619F491
:1006B000689437F8D8CF8836B1F2982F9F7D95543B
:1006C0009330E0F08336A1F18337C1F1833509F02F
:1006D00063C02801F2E04F0E511CF801C080D180A8
:1006E000692D70E036FC02C06FEF7FEFC6010E94FB
:1006F00002064C01689437F882010AC00C5F1F4F54
:10070000FFE3F98388248394912C6501E89437F8FA
:1007100033FE2DC0522C8114910471F5552009F43B
:1007200068CFB70180E290E00E941F065A94F6CF8E
:10073000F801808189830E5F1F4FE4CF2801F2E02A
:100740004F0E511CF801C080D180692D70E036FC3D
:1007500002C06FEF7FEFC6010E9414064C018201B8
:10076000D5CFB70180E290E00E941F062A9428149A
:10077000190409F0B0F7CECFF60137FC859137FEAA
:1007800081916F01B70190E00E941F0651105A94A9
:10079000F1E08F1A9108BFCF843619F0893609F03D
:1007A00077C0F80137FE6BC06081718182819381CF
:1007B0000C5F1F4FF32DFF763F2E97FF09C09095DA
:1007C0008095709561957F4F8F4F9F4F689437F854
:1007D0002AE030E0A5010E944F06C82ECA188C2CD2
:1007E000432C36FE0CC0E89440F8C91440F434FEA3
:1007F00005C032FC03C0F32DFE7E4F2E892C44FE33
:1008000095C0FE01EC0DF11D8081803309F087C099
:10081000242D297E422E842D8870582E43FC95C0AD
:1008200040FE8FC09C2C821418F42C0C922C98182B
:1008300044FE91C0B70180E390E00E941F0642FE93
:1008400009C088E790E041FE02C088E590E0B7016A
:100850000E941F06C91408F48AC0CA94D12C9FEFC5
:10086000C91AD90ACA0CDB1CF60182916F01B701C3
:1008700090E00E941F06AC14BD04B1F74FCF608119
:100880007181072E000C880B990B0E5F1F4F92CFC2
:10089000D32CE894D4F82AE030E0853739F1232DC1
:1008A000297FD22E8F3601F148F48835A9F0F7015F
:1008B000868197812B96E2E10C94FB06803749F004
:1008C0008837A9F7D4FE02C06894D2F820E130E05E
:1008D0000DC06894D4F8F6CF34FE03C0822F866032
:1008E000D82E20E132E002C028E030E0F801D7FE47
:1008F0000FC060817181828193810C5F1F4FA501C0
:100900000E944F06C82ECA183D2CE89437F867CFCE
:100910006081718190E080E00E5F1F4FF0CF42FC5C
:1009200002C0839478CF8394839475CF842D867886
:1009300009F471CFF6CFB70180E290E00E941F0664
:1009400083948214C0F3512C73CF522C5818821404
:1009500008F46ECFF8CF842D867809F47BCF8BE234
:1009600041FE80E247FC8DE2B70190E071CFB70114
:1009700080E390E00E941F069A946CCF8FEF9FEF68
:1009800099CF0F931F93CF93DF93869F8001879F0B
:10099000100D969F100D1124C8010E94DD04EC017A
:1009A000009729F0A80170E060E00E940D06CE01DA
:1009B000DF91CF911F910F9108950F931F93CF93C4
:1009C000DF938230910510F482E090E0E091AE0276
:1009D000F091AF0230E020E0B0E0A0E0309799F471
:1009E0002115310509F44AC0281B390B2430310583
:1009F000D8F58A819B816115710589F1FB0193838B
:100A00008283FE0111C04081518102811381481708
:100A10005907E0F04817590799F4109761F01296BA
:100A20000C93129713961C933296CF01DF91CF91BE
:100A30001F910F9108950093AE021093AF02F4CF6F
:100A40002115310551F04217530738F0A901DB0198
:100A50009A01BD01DF01F801C1CFEF01F9CF9093F9
:100A6000AF028093AE02CDCFFE01E20FF31F819360
:100A700091932250310939832883D7CF2091AC023A
:100A80003091AD02232B41F42091060130910701F2
:100A90003093AD022093AC02209104013091050106
:100AA0002115310541F42DB73EB740910801509111
:100AB0000901241B350BE091AC02F091AD02E21765
:100AC000F307A0F42E1B3F0B2817390778F0AC0171
:100AD0004E5F5F4F2417350748F04E0F5F1F50934E
:100AE000AD024093AC02819391939FCFF0E0E0E0A0
:100AF0009CCFCF93DF930097E9F0FC0132971382EC
:100B00001282A091AE02B091AF02ED0130E020E080
:100B10001097A1F420813181820F931F2091AC02A4
:100B20003091AD022817390709F061C0F093AD028A
:100B3000E093AC02DF91CF910895EA01CE17DF0771
:100B4000E8F54A815B819E0141155105B1F7E90144
:100B5000FB83EA8349915991C40FD51FEC17FD0718
:100B600061F4808191810296840F951FE901998338
:100B70008883828193819B838A83F0E0E0E01296F0
:100B80008D919C9113970097B9F52D913C911197F8
:100B9000CD010296820F931F2091AC023091AD02DD
:100BA0002817390739F6309751F51092AF02109295
:100BB000AE02B093AD02A093AC02BCCFD383C2838C
:100BC00040815181840F951FC817D90761F44E5F8A
:100BD0005F4F88819981480F591F518340838A81D3
:100BE0009B81938382832115310509F0B0CFF09367
:100BF000AF02E093AE029ECFFD01DC01C0CF1382B5
:100C00001282D7CFFC010590615070400110D8F7D7
:100C1000809590958E0F9F1F0895DC0101C06D9304
:100C200041505040E0F70895FC0161507040019040
:100C30000110D8F7809590958E0F9F1F08950F9300
:100C40001F93CF93DF93182F092FEB018B8181FD29
:100C500009C01FEF0FEF812F902FDF91CF911F91D0
:100C60000F91089582FF14C02E813F818C819D8158
:100C7000281739073CF4E881F981CF01019699835F
:100C8000888310838E819F8101969F838E83E3CF1B
:100C9000E885F985812F0995892BA1F3DACFFA012F
:100CA000AA27283051F1203181F1E8946F936E7FAB
:100CB0006E5F7F4F8F4F9F4FAF4FB1E03ED0B4E09C
:100CC0003CD0670F781F891F9A1FA11D680F791FDD
:100CD0008A1F911DA11D6A0F711D811D911DA11DEE
:100CE00020D009F468943F912AE0269F11243019FE
:100CF000305D3193DEF6CF010895462F4770405D99
:100D00004193B3E00FD0C9F7F6CF462F4F70405D47
:100D10004A3318F0495D31FD4052419302D0A9F7A2
:100D2000EACFB4E0A6959795879577956795BA959C
:100D3000C9F700976105710508959B01AC010A2E62
:100D400006945795479537952795BA95C9F7620F39
:100D5000731F841F951FA01D0895052E97FB1EF479
:100D600000940E94C40657FD07D00E94160707FC96
:100D700003D04EF40C94C4065095409530952195BF
:100D80003F4F4F4F5F4F08959095809570956195B7
:100D90007F4F8F4F9F4F08950E943807A59F900D5A
:100DA000B49F900DA49F800D911D11240895B7FF4D
:100DB0000C94CC060E94CC06821B930B08952F92B4
:100DC0003F924F925F926F927F928F929F92AF92DB
:100DD000BF92CF92DF92EF92FF920F931F93CF9328
:100DE000DF93CDB7DEB7CA1BDB0B0FB6F894DEBFBF
:100DF0000FBECDBF09942A88398848885F846E84E5
:100E00007D848C849B84AA84B984C884DF80EE802E
:100E1000FD800C811B81AA81B981CE0FD11D0FB637
:100E2000F894DEBF0FBECDBFED010895A1E21A2EEA
:100E3000AA1BBB1BFD010DC0AA1FBB1FEE1FFF1F7E
:100E4000A217B307E407F50720F0A21BB30BE40BCE
:100E5000F50B661F771F881F991F1A9469F7609515
:100E60007095809590959B01AC01BD01CF010895CF
:100E7000A29FB001B39FC001A39F700D811D1124DB
:100E8000911DB29F700D811D1124911D0895F8943C
:020E9000FFCF92
:100E9200010000000000B00220004A6F795F783A3A
:100EA200202532582C204A6F795F793A2025325812
:100EB2002C205061645F783A202532582C205061F2
:100EC200645F793A202532580A005374617274695A
:100ED2006E67205352414D20746573742E2E2E007E
:100EE2005772697465207068617365206572726FEC
:100EF200723A206578745F72616D5B2534645D209F
:100F02003D2025303258202873686F756C6420624A
:100F1200652025303258290A005265747269657657
:100F2200616C207068617365206572726F723A201D
:100F32006578745F72616D5B2534645D203D2025A8
:100F4200303258202873686F756C642062652025E2
:100F5200303258290A005352414D2074657374206F
:100F6200636F6D706C657465642077697468200ABC
:100F7200253464206572726F727320696E207772F5
:100F820069746520706861736520616E64200A254A
:100F92003464206572726F727320696E2072657498
:100FA20072696576616C2070686173650A0A003047
:100FB200303A20253032582041303A2025303258FC
:100FC2000A0030303A20253032582041313A20256B
:100FD2003032580A0041323A20253032582041330B
:100FE2003A20253032580A0041343A20253032580E
:100FF2002041353A20253032580A0041363A202520
:101002003032582041373A20253032580A004138D0
:101012003A20253032582041393A20253032580AB8
:10102200004131303A2025303258204131313A20C6
:06103200253032580A00CF
:00000001FF
