:100000000C9438000C944D000C944D000C944D0051
:100010000C944D000C944D000C944D000C944D002C
:100020000C944D000C944D000C944D000C944D001C
:100030000C944D000C944D000C944D000C944D000C
:100040000C944D000C944D000C944D000C944D00FC
:100050000C944D000C944D000C944D000C944D00EC
:100060000C944D000C944D000C944D000C944D00DC
:1000700011241FBECFEFD4E0DEBFCDBF11E0A0E062
:10008000B1E0E0E1F1E002C005900D92AE30B107C1
:10009000D9F70E9474000C9486000C94000090BD67
:1000A00089B988E18AB98EE880BD08955D9BFECF4D
:1000B0008CB908955F9BFECF8CB108950F931F9369
:1000C000CF93FC018081882359F08F01C0E00E940A
:1000D0005600CF5FF801EC0FF11D80818111F7CF41
:1000E000CF911F910F9108958FE190E00E944F00F2
:1000F00080E091E00E945E002FEF8FE791E02150B9
:1001000080409040E1F700C000C0F2CFF894FFCFEC
:0E0110000A09204563686F205465737420004F
:00000001FF
